:1000000000100020BD070000B9070000B90700007C
:10001000B9070000B9070000B9070000B9070000E0
:10002000B9070000B9070000B9070000F10000009F
:10003000B9070000B90700002101000029240000D1
:10004000151E0000B9070000B9070000B90700003D
:10005000B9070000B9070000B9070000B9070000A0
:10006000B9070000B9070000B9070000B907000090
:10007000B9070000B9070000B9070000B907000080
:10008000B9070000B9070000B9070000B907000070
:1000900031050000B9070000B9070000B9070000EA
:1000A000B9070000B9070000B9070000B907000050
:1000B000B9070000B9070000B9070000B907000040
:1000C000B9070000B9070000B9070000B907000030
:1000D000B9070000B9070000B907000000000000E0
:1000E000013800D0FCE7704700000000000000006D
:1000F000074B19680868B0E8F00F80F30988BFF370
:100100006F8F4FF0000080F311884EF00D0E704796
:100110009C1D002000000000000000000000000006
:10012000EFF30980BFF36F8F0D4B1A6820E9F00FD2
:1001300010602DE908404FF0600080F3118803F053
:10014000EFFE4FF0000080F31188BDE80840196809
:100150000868B0E8F00F80F30988BFF36F8F70472D
:100160009C1D002010B5054C237833B9044B13B106
:100170000448AFF300800123237010BD60170020F6
:1001800000000000D876000008B5034B1BB10349FE
:100190000348AFF3008008BD000000006417002092
:1001A000D8760000A3F5803A704700BF174B002BAC
:1001B00008BF134B9D46FFF7F5FF00218B460F4606
:1001C0001348144A121A06F0A7FC0E4B002B00D05D
:1001D00098470D4B002B00D09847002000210400C9
:1001E0000D000D48002802D00C48AFF3008006F047
:1001F00009F92000290000F051FA06F0EFF800BFDD
:1002000000000800000000000000000000100020B6
:1002100010170020F0430020000000000000000044
:10022000024A136801331360704700BFC4170020EF
:1002300008B50C4C0C4E0D4D0CE005F025FA23785A
:10024000284683F00103237006F066F840F2EE20A2
:1002500003F008FE237831462846002BEDD105F047
:1002600029FAECE7061700207C1700208C170020E5
:100270002DE9F04F89B0904BDFF84082187805F0F7
:1002800071FD00238E4A8F4E1288DFF83CA28F4CFE
:100290008F4DDFF84092ADF810208DF8123098F8AD
:1002A0000030002B67D1204606F036F84FF0FF32C1
:1002B0000DF10F01306802F039FD2946204605F0A6
:1002C000F9F99DF80F30772B1FD8602B10D9613BBF
:1002D000162B1AD8DFE803F0BC1919B81919191927
:1002E00019191919191919191919B4191919B00065
:1002F0000A2B00F0B1801B2B07D1774805F00AFFCD
:1003000003F002FD002003F09BFB4946204605F068
:10031000E7F92946204605F0B7F99AF80030082B8E
:10032000BDD14FF0FF3200236C48009203211A46E2
:10033000006804F079FA6A4B0C211B68694A05A829
:1003400006F084F89DF8141049B1DFF89CB105AFB0
:10035000584601F0C3FF17F8011F0029F8D1634880
:1003600005F0D8FE03F0D0FC002003F069FB98F8FC
:100370000030002B97D04FF0FF320DF10F013068A5
:1003800002F0D4FC04A806F0D9FB03469DF80F70D8
:1003900020336B444FF0FF320DF10F0103F8107C56
:1003A000306802F0C3FC04A806F0C8FB03469DF8C1
:1003B0000F2020336B444E4904A803F8102C06F09C
:1003C000B3FB834600286DD14FF0FF320DF10F01D2
:1003D000306802F0ABFC9DF80F304FF0FF32303B3D
:1003E00003EB83030DF10F0130685F0002F09EFC08
:1003F0009DF80F103F48303939440F2988BF5946BE
:1004000005F0DAF93C4B01220093002364211846E1
:1004100004F09CF9314B0746186003F06BFD4FF078
:10042000FF330246009338460023012104F0FCF913
:10043000002388F8003036E7284604F015FC64E70E
:10044000284604F09DFC60E7284604F029FE5CE79E
:10045000284604F021FD58E7174B18780130C0B248
:10046000187005F07FFC3C2005F04CFB2946214824
:1004700005F07CFFE0B12946484605F09FFF0028C3
:100480007FF443AF01464FF4C872072005F04CFBE0
:100490002946484605F07AFF9AF8003001338AF879
:1004A000003032E70322002104A806F035FBF6E60F
:1004B00005F01CFB29E700BFEA43002007170020D6
:1004C000E86D0000C0170020E84300208C170020D2
:1004D0007C1700209C170020C06D0000C81700206A
:1004E000C4170020C46D000000E00040C86D00008B
:1004F000BC6D0000AC1700202102000008B5094EB9
:10050000094D0A4C002003F09BFA4FF0FF31306890
:1005100002F082FD00234FF0FF322146286802F0EE
:100520000DF9EFE7BC170020C0170020E9430020B9
:1005300008B50D4801F0CCFE03460C480C4A0021DA
:100540000068137002F092FB0A4B186803F0EEFA91
:1005500048B14FF0E0234FF08052C3F8042DBFF3B1
:100560004F8FBFF36F8F08BD00E00040BC17002025
:10057000E9430020D417002010B584B00121354A8A
:10058000354B1164D3F8FC4003A801F081FDB4F1B0
:10059000805F03D39DF80C30022B3DD801212F48FA
:1005A00000F086FF05F0C6F805F0C8F805F0CCF8B5
:1005B0002B4804F035FB03220021012002F05CF8F7
:1005C0000446284B0022012120201C6002F054F830
:1005D000254B1860002830D00324009402242348BF
:1005E00000230190A0222249224803F0F7F9009449
:1005F0000124214800230190A0222049204803F033
:10060000EDF9204800230190A0221F4900941F48C3
:1006100003F0E4F904B010BD9DF80D20022A09D0C2
:100620001B4AD2F8C03023F0500343F01003C2F845
:10063000C030B3E7042BF3D1B0E7BFF34F8F1549B8
:10064000154BCA6802F4E0621343CB60BFF34F8FCF
:1006500000BFFDE700000C400081E00F00D2040065
:100660007C170020BC170020C0170020D4170020E2
:10067000D06D0000FD040000D0170020D86D0000F0
:1006800071020000CC170020DC6D00003102000078
:1006900000800C4000ED00E00400FA0508B501F010
:1006A0007FFEFFF769FF01F089FE002008BD00BF53
:1006B000704700BF10B501F075F801210F4800F038
:1006C000F7FE01220020114601F070FB01220C4CC4
:1006D0000020A36A114623F4803323F0030343F080
:1006E0000203A36201F062FBA36A002023F48013DB
:1006F00023F00C0343F00803A36210BDD0433E0077
:1007000000800C4010B582B00121194A194B1164C8
:10071000D3F8FC4001A801F0BBFCB4F1805F10D31A
:100720009DF80430022B0CD99DF80520022A1BD01D
:10073000114AD2F8C03023F0500343F01003C2F83E
:10074000C03001F009FE00F031F801F0DFFD01F0EA
:10075000F1FDFFF7AFFF01F0C7FD00F01BF802B09D
:10076000BDE8104001F06EBE042BE1D1E9E700BF07
:1007700000000C400081E00F00800C4001F07EBEC4
:10078000704700BF00F004B8704700BF704700BF5B
:100790000F20704708B50121034800F089FEBDE82D
:1007A0000840FFF785BF00BF00D2040001210148C7
:1007B00000F07EBE00D20400FEE700BF08B500F0E6
:1007C0009BF91E4C1E4BA34238BF9C4614D2DCF84A
:1007D00008306BB1DCE9001200230439043A51F807
:1007E000040F013342F8040FDCF808008342F6D30B
:1007F0000CF10C0CA445EAD31248134B98421BD2BF
:10080000002403F1FF3CACEB000C00F110032CF0D2
:10081000070C08309C4450F8043C53B1002350F8B6
:10082000082C043A42F8044F50F8041C01338B4260
:10083000F8D308306045EED1FFF7B8FCEC76000045
:10084000E0760000EC760000EC7600002A4AD36ADD
:1008500003F47053B3F5805F35D0B3F5005F38D043
:10086000B3F5006F32D0D26802F4E062B2F5407F97
:1008700040D007D8B2F5807F32D0B2F5007F17D1D3
:100880001E4B07E0B2F5806F26D0B2F5A06F1C4B6F
:1008900018BF0023184A1B4910685268C0F3823001
:1008A0000130B3FBF0F002F00F03D840086070474E
:1008B000A2B9154A154BD2F8FC201548B2F1985F41
:1008C00038BF0346E6E74FF40043E3E7114B1B68EC
:1008D000E0E7114B1B68DDE7104BDBE70023D9E7AE
:1008E000094A0F4BD2F8FC200E48B2F1985F38BF8E
:1008F0000346CFE70C4BCDE700800C40C0D8A700E3
:10090000003FAB01001000200081E00F804F12007B
:1009100040420F000410002008100020406F4001EA
:1009200040B56400C0CF6A00809FD5000048704782
:10093000006CDC02274AD36A03F47053B3F5805F7E
:100940002FD0B3F5005F32D0B3F5006F2CD0D36851
:1009500003F4E063B3F5407F3AD007D8B3F5807F66
:100960002CD0B3F5007F11D11B4807E0B3F5806FA1
:1009700020D0B3F5A06F194818BF0020154B1B6895
:10098000C3F382330133B0FBF3F07047A3B9144BC8
:100990001448D3F8FC20144BB2F1985F38BF1846C6
:1009A000ECE74FF40040E9E7104B1868E6E7104B1E
:1009B0001868E3E70F48E1E70020DFE7084B0E483F
:1009C000D3F8FC200D4BB2F1985F38BF1846D5E73D
:1009D0000B48D3E700800C40C0D8A700003FAB0114
:1009E0000081E00F804F120040420F0004100020F1
:1009F00008100020406F400140B56400C0CF6A007D
:100A0000809FD500014B1868704700BF041000207C
:100A10002C4A2D4B1060DA6A120500D47047DA6A4E
:100A200002F47052B2F5805F2AD0B2F5005F2AD08E
:100A3000B2F5006F0DD0DB6803F4E063B3F5407FDF
:100A400031D014D8B3F5807F31D0B3F5007F1DD1FC
:100A50001E481D4A1E4913685268C3F3823301338E
:100A6000B0FBF3F002F00F03D84008607047B3F515
:100A7000806F16D0B3F5A06F164818BF0020E8E7C6
:100A80004FF40040E5E7144B1868E2E76BB9134BED
:100A90001348D3F8FC20134BB2F1985F38BF1846C7
:100AA000D7E71148D5E71148D3E70020D1E70B4B32
:100AB0000F48D3F8FC200F4BB2F1985F38BF1846AF
:100AC000C7E700BF0410002000800C40C0D8A7007A
:100AD00000100020003FAB01081000200081E00F53
:100AE000804F120040420F00406F4001809FD500B0
:100AF00040B56400C0CF6A00014A024B9A6070475B
:100B00000000000000ED00E04FF40040704700BF1F
:100B10004FF47A70704700BF014B1868704700BFF0
:100B200008100020FEE700BF0346054A054910688B
:100B300003448B428CBF4FF0FF301360704700BFFF
:100B40000C1000200000022038B541F671331A4D18
:100B5000EC6BEB63FFF7EAFE6B68A4B213F0060FD1
:100B600004D1164B98421FD904220DE003F007026E
:100B7000042AF6D0114B984214D8114B114A034461
:100B800093422CBF0222032241F671300A4984426B
:100B90004B6823F0070343EA02034B601CBF0023AA
:100BA000CB6338BD0522EFE7054B064A0344934269
:100BB0002CBF00220122E7E700000C400048E801BA
:100BC000FFDB0BFF0024F40010B5364B0446D3F8CE
:100BD000FC30C3F307434A2B2DD0792B2BD0482B65
:100BE00012D041F218513048FFF79CFF0022944286
:100BF0000DD8002318462D492D4A8867506820F4E7
:100C000080701843506010BD2A4A9442F1D9254B98
:100C1000D3F8FC30C3F307434A2B2CD0792B2AD0CE
:100C2000482B1FD0204841F21851FFF77BFF4FF4AB
:100C300000730120DFE7204A1E48D2F8E030D2F8E6
:100C4000E810D2F8EC201B02C2F3031203F47C5329
:100C5000134301F0F001194A0B43B3F5017F38BF8C
:100C60000246C4E7164B9C4294BF4FF480734FF486
:100C700000730120BFE7104B1248D3F8E020D3F8EF
:100C8000E810D3F8EC301202C3F3031302F47C52E1
:100C90001A4301F0F0010A4B0A43B2F5017F28BF65
:100CA0000346E0E70081E00FEC6D00000000904398
:100CB00000800C400048E80100FF0FE000366E01A4
:100CC0000090D003006CDC0238B5764B04469842A5
:100CD00000F08080744B98421FD1744A936A03F0ED
:100CE0000C03082B00F0A4800C2B00F0A980042B2F
:100CF00000F08E80936ADB0200F1A2806A4B9C4276
:100D000033D16A4B9B6AC3F38103013B022B00F290
:100D1000C480DFE803F02F50860041F613016448D9
:100D2000FFF700FF04F00F03013B062B47D801A299
:100D300052F823F0990D00004B0E0000DB0C000070
:100D4000BF0D0000BF0D00007D0D0000510D000023
:100D5000564BDB6A03F46033B3F5803F26D0B3F51E
:100D6000003F59D0B3F5004F0AD041F64201504838
:100D7000FFF7D8FEBDE83840FFF7C6BE4B4B1B68F7
:100D800041F642014A48FFF7CDFE41F66D01484861
:100D9000FFF7C8FE002038BD444BDB6A03F47053F4
:100DA000B3F5805F38D0B3F5005FE9D141F6420179
:100DB0003F48FFF7B7FEBDE83840FFF7ADBE42F24F
:100DC00001213B48FFF7AEFE41F642013848FFF7EC
:100DD000A9FEDFE7354B9B6A03F00303013B022BBF
:100DE00006D9324B9B6ADA0327D42E4B9C4285D11D
:100DF0002E4B9B6A03F00303013B022B44D801A254
:100E000052F823F0750D0000B70D0000230E00000E
:100E1000254B9C423FF475AF41F642012448FFF751
:100E200081FEFFF713FD234B9B6F0133D84038BD84
:100E30001D4B9C423FF465AFB8E71A4B9C42D7D09C
:100E4000194B9C423FF45DAF9AE7184B996A01F049
:100E5000030101390229C4D8134B174A9C42555C3F
:100E60003FF44FAF41F642011148FFF75BFE032DFF
:100E70008BD801A353F825F0950D0000750D0000E7
:100E8000B70D0000230E00001022084B9B6AD340D0
:100E900080D0BDE83840FFF73BBE044B14229B6A6C
:100EA000F5E700BF02001E000300200000800C4098
:100EB000EC6D0000000090438C6E000008B5C0F39C
:100EC0000313013B0C2B08D8DFE803F00E070714CF
:100ED00007071B2234070707420041F64F31374806
:100EE000FFF720FE012008BD354B1868C0F38230A3
:100EF000013008BD0120324B9B6803F00F0398407E
:100F000008BD01202E4B5B6803F00F03984008BD1D
:100F10002C4B98424AD023D82B4B984238D003F51B
:100F2000822398423BD10120254B9B6EC3F30323C0
:100F3000984008BD254B98421CD003F504339842D5
:100F40001FD041F648311D48FFF7ECFD012008BDD8
:100F500001201B4B5B68C3F300230344984008BD8A
:100F60001B4B98421BD10120154B9B6E03F00303D2
:100F7000984008BD0120124B1B6F03F003039840FB
:100F800008BD01200E4B1B6FC3F30113984008BD31
:100F900001200B4B9B6EC3F30313984008BD41F631
:100FA0002F310648FFF7BEFD012008BD0120044B8C
:100FB0009B6EC3F301330433984008BDEC6D000011
:100FC00000800C4080002A008016120090071A0052
:100FD00080062E0038B5C0F30313013B0C460C2BE2
:100FE00008D8DFE803F00E0707300707406B9607C5
:100FF0000707A60041F62A41BDE83840AE48FFF792
:1010000091BD4C1E072C00F26D81FFF79DFDAB4A90
:10101000136823F4E03343EA84341460FFF716FCCA
:1010200041F67132A64BDC6BDA635B68A4B213F055
:10103000060F03F00702A34B40F08C80984240F269
:10104000E880042292E04D1EB5F5007F80F07781A4
:10105000B4FA84F4C4F11F01984B9C6824F00F0487
:101060000C439C6038BD4D1EB5F5007F80F04B8170
:10107000FFF76AFDFFF7EAFBB0FBF4F0FFF7A4FD12
:10108000B4FA84F4C4F11F018C4B5C6824F00F04A3
:101090000C435C60FFF7DAFB41F67131884BDA6B89
:1010A000D9635B6892B213F0060F03F00701854B1A
:1010B0006BD1984240F2A580042171E0824B9842A6
:1010C00000F051817CD8814B984200F0678103F594
:1010D0008223984240F07D81B1F5004F00F2A1805B
:1010E000764B5B6DDA0703D4744A136D5B07FCD44F
:1010F000631EB3F5004F80F0BE81B4FA84F3C3F1F0
:101100001F031A026D498B6E23F4706313438B66C1
:1011100038BD6F4B984200F0B58003F50433984218
:1011200000F09580BDE8384041F624416248FFF761
:10113000F9BC4B1EB3F5004F80F0DA80B4FA84F4AA
:10114000C4F11E0424025D4A536823F480732343D0
:10115000536038BD042A3FF471AF98424FD85D4BBD
:101160005D4A034493422CBF0222032241F67130B0
:10117000534984424B6823F0070343EA02034B6060
:101180003FF470AF0023CB6338BD042991D098425F
:1011900033D8504B504903448B422CBF02210321CA
:1011A000474C636823F007030B4341F671318A42D1
:1011B00063601CBF0023E363BDE83840FFF704BD54
:1011C000464B984240F0058108293AD83B4A536D76
:1011D000D90702D4136D5B07FCD4631EB3F5004F2F
:1011E00080F03E81B4FA84F4C4F11F04334A936E54
:1011F00023F003032343936638BD0521D0E705227E
:10120000B4E7344B344903448B422CBF0021012105
:10121000C6E7304B304A034493422CBF00220122E0
:10122000A4E741F6D1312448FFF77CFC234B5B6DEA
:10123000D9077FF559AF4FF454612948FFF772FC85
:101240005BE741F6F0311C48FFF76CFCBEE708296C
:1012500000F2CC80194A536DD90702D4136D5B0696
:10126000FCD4631EB3F5004F80F0D180B4FA84F350
:10127000C3F11F031A0111490B6F23F0300313430D
:101280000B6738BD082900F2AB800C4A536DDD07AF
:1012900002D4136D5806FCD4631EB3F5004F80F0E2
:1012A000AB80B4FA84F4C4F11F04044A136F23F032
:1012B00003032343136738BDEC6D000000800C402E
:1012C00000000C400048E80180002A00801612004F
:1012D00090071A00FFDB0BFF0024F40080062E00AD
:1012E0003C6E000041F67C316D48FFF71BFC8CE63C
:1012F0004FF454616B48FFF715FC002C7FF41EAFD0
:10130000A4F500741FE741F6A5316548FFF70AFC14
:10131000FFF71AFCFFF79AFAB0FBF4F0FFF754FC62
:10132000B5F5004FFFF4ACAE4FF454615D48FFF7E4
:10133000F9FB002C7FF4A4AE4FF0FF31A4E641F698
:101340008F315748FFF7EEFBB5F5004FFFF480AE45
:101350004FF454615348FFF7E5FB002C7FF478AE5F
:101360004FF0FF3178E6A1F11003702B69D84E4A97
:10137000536DDD0702D4136D5807FCD4631EB3F51B
:10138000004F64D2B4FA84F3C3F11B031A03464935
:101390008B6E23F4405313438B6638BDB1F5004F79
:1013A00040D8414B5B6DDD0703D43F4A136D5807AE
:1013B000FCD4631EB3F5004F68D2B4FA84F3C3F1D2
:1013C0001F031A0138498B6E23F0F00313438B6619
:1013D00038BD41F6FE31BDE838403148FFF7A2BBC9
:1013E00041F607412E48FFF79DFB4EE741F61641B7
:1013F0002B48FFF797FB2DE74FF454612948FFF77F
:1014000091FB002C7FF44DAF4FF0FF344DE74FF4CC
:1014100054612448FFF786FB002C7FF427AF6FF060
:101420000F0228E741F6C3311D48FFF77BFB1E4B37
:101430005B6DDB07B9D54FF454611A48FFF772FBB7
:10144000BBE74FF4DF511648FFF76CFB8FE74FF413
:1014500054611448FFF766FB002C93D1134A96E7BA
:101460004FF454610F48FFF75DFB002C7FF4BAAED8
:101470004FF0FF34BAE64FF454610A48FFF752FBCD
:101480006FF0FF02002C3FF43DAE36E64FF454619E
:101490000448FFF747FB6FF00F02002C92D08CE757
:1014A000EC6D00003C6E000000800C4000B0FFFFBF
:1014B00038B5C0F30323013B04460D46092B06D87B
:1014C000DFE803F00C131A0505253605053C41F647
:1014D000B041BDE838401D48FFF724BB1C48C4F3A9
:1014E00004340444A400256038BD1A48C4F304340D
:1014F0000444A400256038BDFFF7A8F9FFF764FB9A
:101500001548C4F304340444A400256038BD4FF0EA
:10151000010C1248C4F30434114A536DDB07E0D4C4
:10152000136D13EA0C0FFBD10444A400256038BDF1
:101530004FF0100C0B48C4F30434EDE70A48C4F331
:1015400004340444A400256038BD00BFEC6D0000E5
:101550004000E4102002E4100002E410C002E41095
:1015600000800C400003E410C003E41010B500F448
:101570007813B3F5E01F00F0D48030D8B3F5801FA6
:101580007CD01CD9B3F5B01F00F0C280B3F5D01FDA
:1015900008D17748FFF798FB764B1B6F03F00303E6
:1015A000D84010BDB3F5901F40F091807248FFF70E
:1015B0008BFB704B9B6EC3F30313D84010BDB3F588
:1015C000802F00F08A8021D9B3F5602F7FD1694B3D
:1015D0001A68D20053D5BDE81040FFF7ABB9B3F598
:1015E000281F00F082802CD9B3F5381F00F08780C7
:1015F000B3F5781F13D10446FFF728F903462046B8
:101600001C46FFF75BFCB4FBF0F010BD002BE2D0F2
:10161000B3F5003F5BD1BDE81040FFF717B9B3F554
:10162000301F54D15448FFF74FFB524B9A6EDB6F7B
:10163000C2F3013203F007030133D040B0FBF3F0F3
:1016400010BDB3F5001F3DD0B3F5181F0ED1494BA7
:10165000DB6A03F46033B3F5803F71D0B3F5003F2C
:101660006AD0B3F5004FB6D0002010BDB3F5F01F1F
:101670002DD1BDE810404048FFF726BB3D4B5B69CC
:1016800003F4E063B3F5407F67D00FD8B3F5807FF4
:101690005AD0B3F5007F11D1384B3948D3F8FC202C
:1016A000384BB2F1985F28BF184610BDB3F5C06F34
:1016B00040D0B3F5E06F49D1334810BD002B45D180
:1016C000324810BD2A48BDE81040FFF7FDBA4FF47C
:1016D000EF512F48FFF726FAC6E7FFF72BF9254B06
:1016E0009B6803F00F03D84010BD2348FFF7ECFAC6
:1016F000204B9B6EC3F301330433D84010BD1E480A
:10170000FFF7E2FA1B4B9B6E03F00303D84010BDBA
:101710001948FFF7D9FA174B9B6EC3F30323D84040
:1017200010BD1348FFF7D0FA124B1B6FC3F3011320
:10173000D84010BD174810BDBDE81040FFF7E4B910
:10174000BDE81040FFF7E8B9134810BD41F29C51C5
:101750000F48FFF7E7F9002010BD084B0F48D3F8FA
:10176000FC200F4BB2F1985F28BF184610BD00BF98
:101770000300200000800C4002001E000081E00FEA
:10178000C0CF6A0040B56400406F4001809FD50023
:10179000EC6D0000003FAB01C0D8A70040420F0035
:1017A000804F120038B55C4BD3F8FC30C3F30743CD
:1017B0004A2B00F09680792B00F09380482B00F0A4
:1017C0008E80564841F21851FFF7ACF90120FFF71F
:1017D000FBF9FFF717F90421514A524B984213685D
:1017E00096BF23F0600343F0600343F020031360CF
:1017F0004B4B4D4A1962D2F88C35002BFBD041F689
:1018000071334A4DEC6BEB63FFF790F86B68A4B251
:1018100013F0060F03F00702424B03D198424AD956
:1018200004220AE0042AF9D0984242D8404B414AA7
:10183000034493422CBF0222032241F671303B49FC
:1018400084424B6823F0070343EA02034B6018BF4E
:1018500000234FF0020218BFCB63314B5A62FEF7F0
:10186000F5FFFFF7B1F9FEF7F1FF41F671312F4BAC
:10187000DA6BD9635B6892B213F0060F03F00701CD
:10188000284B20D1984243D8294B2A4903448B4204
:101890002CBF0021012141F671342448A242436843
:1018A00023F0070343EA010343601CBF0023C36323
:1018B00038BD0522C1E71E4B1E4A034493422CBF8C
:1018C00000220122B9E70429DCD0984222D8184B23
:1018D000184903448B422CBF02210321DBE7164841
:1018E00075E716491648D1F8E030D1F8E820D1F86C
:1018F000EC101B02C1F3031103F47C530B4302F001
:10190000F0020D491343B3F5017F38BF08465EE787
:101910000421C0E70521BEE70081E00FEC6D000067
:1019200000800C400048E8010000904300000C409B
:10193000FFDB0BFF0024F4000148E80100FF0FE08B
:1019400001366E0138B500F00F04631E062B22D855
:10195000DFE803F0130404212135280001390929A7
:101960006AD8DFE811F02301F4000B016900690077
:10197000170169006900690027010239082962D846
:10198000DFE811F0DC00E1006F00C40061006100DD
:1019900061006100680042F26D61BDE83840B14805
:1019A000FFF7C0B8032938D009291FD0022924D055
:1019B000BDE8384042F27751AA48FFF7B3B807298B
:1019C0000ED0092906D0BDE8384042F23851A5486A
:1019D000FFF7A8B8A44A136843F08053136038BDDA
:1019E000A14A136823F08053136038BD20239E4A18
:1019F0005362D36A1B04FCD538BD4FF480719A4BF7
:101A00009A4A1962D2F8A435002BFBD04023964A9B
:101A10005362D36AD803FCD538BD4021924B934A18
:101A20001962D2F89C35002BFBD060238E4A53629A
:101A3000D36A9903FCD538BD42F2DD41BDE8384098
:101A40008848FFF76FB842F23441BDE83840854816
:101A5000FFF768B842F22F41BDE838408148FFF7F0
:101A600061B8834BD3F8FC30C3F307434A2B00F033
:101A7000CB80792B00F0C880482B00F0C18041F268
:101A800018517848FFF74EF82046FFF79DF8FEF70B
:101A9000B9FF02240421774B774A984272480368C1
:101AA00096BF23F0600343F0600343F0200303601C
:101AB0006D4B19621368002BFCD0FFF745F86A4B99
:101AC0005C62FEF7C3FE0446FFF77EF841F6713212
:101AD0006A4BD96BDA635B681FFA81FC13F0060F5F
:101AE00003F00702634B6BD19C427FD9042241F67D
:101AF0007130624984454B6823F0070343EA0203CF
:101B00004B603FF46CAF0023CB6338BD584BD3F828
:101B1000FC30C3F307434A2B00F08D80792B00F093
:101B20008A80482B6ED04F4841F21851FEF7FAFFD9
:101B30002046FFF749F82146514AB9E74FF4807132
:101B40000424504AB4E7402103244F4AB0E74FF43D
:101B50008071454B454A1962D2F8A435002BFBD061
:101B6000082100230222022C36D03F4A936A23F434
:101B7000801323F00C030B43936238BD40213A4B92
:101B80003A4A1962D2F89C35002BFBD0042100237D
:101B90000122E8E70125FEF759FEFFF715F8334863
:101BA0000C2100230322C0F81058DCE700210B466B
:101BB0000A46D8E74FF480114FF480330022D2E771
:101BC000042A91D09C4219D8304B314A2344934285
:101BD0002CBF022203228AE723491A438B6A23F48B
:101BE000803323F0030313438B6238BD274B284A0D
:101BF000234493422CBF0022012278E7052276E796
:101C0000244C41E7234894E72349244CD1F8E030A1
:101C1000D1F8E820D1F8EC101B02C1F3031103F452
:101C20007C530B4302F0F0021A491343B3F5017FD2
:101C300038BF0C4628E718491848D1F8E030D1F8E9
:101C4000E820D1F8EC101B02C1F3031103F47C531C
:101C50000B4302F0F0020F491343B3F5017F38BF85
:101C6000084666E7EC6D000000800C4000009043E1
:101C70000081E00F0048E8018C05904300000C4013
:101C800084059043A40590439C059043FFDB0BFF24
:101C90000024F4000148E80100FF0FE001366E0166
:101CA00010B5134B0446DB6A03F47053B3F5006FB1
:101CB00018D008210E4BA27819621B6894F803C053
:101CC00023F4D163607823F00703217843EA0C03FF
:101CD00043EA402343EA81030AB143F08003044A04
:101CE000136010BD42F64A110248FEF71BFFE0E701
:101CF00000800C40EC6D000010B5802804460BD825
:101D0000084B9A6D120706D4D86F04F0070420F030
:101D100007000443DC6710BD42F6EA110248FEF7F3
:101D200001FFEDE700800C40EC6D000070B5184B32
:101D30000546DB6A03F47053B3F5005F21D04FF41E
:101D40000073134E33622B78AC7813F0020F14BF7C
:101D50004FF4005300236A78E40244EA82441C43AF
:101D600000F050F833680B4A5C4014405C4034602B
:101D700000F04CF82B78084A03F00103C2F8A034B5
:101D800070BD42F608210548FEF7CCFED7E700BF3C
:101D900000800C4000380C0000008C43EC6D00000B
:101DA000014B1880704700BF04170020042818D882
:101DB00089B110B40D4B0E4C53F820100D4B54F854
:101DC000200019622AB10C4A024492001368002BC9
:101DD000FCD010BC7047094A064B52F820201A620A
:101DE000704742F6BB210648FEF79CBEA46E000079
:101DF000906E000000800C406001E410B86E00009E
:101E0000EC6D0000EFF3108072B6704700B962B657
:101E1000704700BF2DE9F84F1F4A1368D26813EAD4
:101E2000020833D44FF002091C4FDFF86CA0BB6BE3
:101E300008EA030428EA0308FCB100250126E307A9
:101E400006FA05F215D5BB68CAF8082003EB05139E
:101E5000DB6873B1197AD3F800B081F001021A720D
:101E6000BBF1000F05D0003918BF012128465A6880
:101E7000D847640805F10105E1D1B9F1010F03D09C
:101E80004FF001094446D7E7BDE8F88F4FF4897158
:101E90000348FEF747FEC5E700300C4000200C4029
:101EA000CC6E000090F804C083780B4943EA0C0321
:101EB00090F800C0CA6A43EA0C4390F803C0407827
:101EC00022F4803243EA4C0322F01F0243EA00135B
:101ED0001343CB62704700BF00600C402DE9F04710
:101EE000042804460D46174698463AD9052800F0BE
:101EF000C3804FF4B0716248FEF714FEC7BBE60022
:101F0000072D4DD8DFF87C9133199B009944FFF7DA
:101F100079FF0F23D9F800104FEA850C07FA0CF26D
:101F20004A4003FA0CF313404B40C9F80030FFF766
:101F30006DFFA7B9B8F1000F5FD0042C00F29780B5
:101F40004FF6FF73EB40DA0776D501213444A40045
:101F500004F1804404F5C04401FA05F52561BDE8AB
:101F6000F0874FF6FF73EB40DE07C2D5002FC6D0D7
:101F7000B8F1000F2ED0042C6FD84FF6FF73EB4052
:101F8000D80753D5012204EBC4039B0003F180431F
:101F900003F5C043AA40072D4FEAC4061A61B1D920
:101FA0003319DFF8E4909B009944A5F108034FEA48
:101FB000830AFFF727FF0F23D9F8001007FA0AF268
:101FC0004A4003FA0AF313404B40C9F80030FFF7C8
:101FD0001DFFAEE7042C3BD84FF6FF73EB40D9074B
:101FE00030D5012204EBC4039B0003F1804303F5C9
:101FF000C043AA40E6005A6182E7042C32D84FF66B
:10200000FF73EB40DB070BD501213444A40004F13E
:10201000804404F5C04401FA05F56561BDE8F08728
:1020200040F2FE311948FEF77DFDEDE740F22D410B
:102030001648FEF777FDA5E740F22D411348FEF75D
:1020400071FD82E740F2FE311048FEF76BFDC8E7F4
:10205000052CF7D141F6FF73C0E7052CE6D141F618
:10206000FF738CE7052CDBD141F6FF73C9E7052C24
:10207000E2D141F6FF7365E741F6FF7373E700BFF6
:102080001C6F000004600040086000406C6F00009E
:1020900010B50446D8B1104AD2F8E430D2F8E010B6
:1020A0009B0003F03C03C1F381110B43A370D2F8F2
:1020B000E03003F03F036370D2F8E830D2F8EC2050
:1020C00003F0F003C2F303121343237010BD572132
:1020D0000248FEF727FDDEE700FF0FE0C06F0000BB
:1020E0002DE9F041754B044698420D4600F098806A
:1020F00003F58063984226D003F58063984222D08E
:1021000003F5C05398420DD003F58063984209D07F
:1021100040F2FD216A48FEF705FD40F24241684861
:10212000FEF700FD002340F6AA6041F2050141F6EA
:10213000F972E06023606160A3606361E364A2649C
:102140006365A36511E0002340F6AA6041F2050132
:1021500041F6F972E06023606160A3606361E3644B
:10216000A2646365A3650023E365AB7C1BB12368B0
:1021700043F080432360EB7C1BB12B7D43F01003C5
:10218000A3656B7B298AEA890B43AF6813436360BD
:10219000D5F804802E7B77B1B8F1000F13D0402E14
:1021A00017D036D8002E62D0202E4BD1B7EBD80FE7
:1021B00077D8082314E04FF4A1714148FEF7B2FC30
:1021C000B8F1000FEBD13F48FFF7D0F9402E804621
:1021D000E7D13D4BA3FB0823B7EB930F5AD8062357
:1021E00003FB07F77B0803EB8803B3FBF7F3374ADE
:1021F000043BB2EB831F4FEA831759D32268334B5A
:1022000022F06002226022683B4016432660636130
:102210001DE0602E16D1B7EB980F2DD80423DFE711
:10222000002340F6AA6041F2050141F6F972E06030
:1022300023606160A3606361E364A26463652365F6
:10224000A36592E740F289111D48FEF76BFC6B7D98
:102250001BB1236843F480332360AB7D1BB123683B
:1022600043F4004323602B78E360BDE8F081B7EBD3
:10227000181F08D81023B3E740F283111048FEF767
:1022800051FC0423ACE74FF4BA710D48FEF74AFC49
:102290001023A5E74FF4BF710948FEF743FC06235E
:1022A0009EE740F279110648FEF73CFC082397E7C9
:1022B0004FF4D0710248FEF735FC9FE700C00040A4
:1022C0001470000040810400ABAAAAAAC0FF1F003E
:1022D00003691B06FCD5C069C0B2704703695B0681
:1022E000FCD54163704700BF00B583B0064B93E84F
:1022F0000300009068468DF80410FFF7D3FD00201E
:1023000003B05DF804FB00BF6870000000B583B047
:10231000064B07481B680193FEF77AFB01A8FFF7FD
:10232000BFFC002003B05DF804FB00BF707000002C
:10233000006CDC0210B582B04FF44073002401A899
:10234000ADF804308DF80640FFF7F0FC6420FFF78D
:1023500027FD204602B010BD30B5FC21FB234FF015
:10236000A00E0D4D0D4C05E027298CF800E311D08F
:10237000C3B2D1B25AB2002A04EB020C03F101003D
:1023800001F10102F0DA03F00F03043B2B4483F860
:1023900018E0EDE7002030BD00ED00E000E100E0D6
:1023A00008B5FEF7AFF9FEF7EBF9FEF7EBF9FEF72C
:1023B000EBF9BDE80840FEF7E9B900BFFEF7DEB96A
:1023C00010B50446FEF742FA134BB0F57A7FA3FB33
:1023D000002314D31149124A9B098842B2FBF3F33C
:1023E00013D84FF47A7004FB00F0B0FBF3F003282D
:1023F00000D810BD8008BDE81040FDF771BE362141
:10240000BDE810400748FEF78DBB3C21BDE81040F9
:102410000448FEF787BB00BFD34D6210E7CD9A3B5F
:1024200040420F007470000008B54FF0E0231B69B4
:1024300001F0AEFE012800D108BDBDE8084002F061
:10244000A5BA00BFEFF305837BB9EFF3108343B95F
:10245000EFF311832BB9084B186848B901221A60B1
:102460007047054B18680228F7D16FF005007047D8
:102470004FF0FF30704700BFB81A0020EFF305831C
:10248000E3B9EFF310837BB10E4B1A68022A15D023
:10249000012A10D110B5002402220B49CC771A6012
:1024A00001F0AEFB204610BDEFF31183002BEBD102
:1024B000044B1A68ECE74FF0FF3070476FF00500EF
:1024C000704700BFB81A002000ED00E040F674111C
:1024D0000148FEF727BB00BFD070000030B4A02336
:1024E000034D044C05600C60136030BC704700BFA6
:1024F000581A0020D817002030B4A023034D044CF4
:1025000005600C60136030BC704700BF3C1D0020AC
:10251000BC1A00204FF0FF31002200F10803C0E98F
:102520000131C0E903330260704700BF002303613B
:10253000704700BF10B4436802689C6801328C6029
:102540009C684B606160996010BC086102607047D4
:1025500030B40D686B1C10D000F108031C465B689A
:102560001A68AA42FAD902684B60013299608C60FD
:102570006160086130BC0260704704696368F2E71B
:1025800010B40369D0E901125C688A6051600021CF
:10259000844208BF5A601A680161013A1A601868DB
:1025A00010BC70472DE9F04182B00E4615461C461E
:1025B00080469DF8207000283FD0002C53D0002D7D
:1025C00049D0002E41D050230193019B502B04D0C1
:1025D0004FF4B3712748FEF7A5FA019B4CB30123D2
:1025E000002E08BF254684F84630C4F83C80266497
:1025F000256002F095F9D4E90F3101FB03F322685D
:10260000591A13446260A3600A44FF230021E26068
:10261000A16304F1100084F8443084F84530FFF7DA
:1026200079FF04F12400FFF775FF02F099F984F8AF
:102630004C70204602B0BDE8F08140F255110D48C3
:10264000FEF770FA002CBAD10DE040F25D11094896
:10265000FEF768FAB7E7002EB5D04FF4AF71054822
:10266000FEF760FAAFE740F259110248FEF75AFA56
:10267000A5E700BF38710000F8B505460E461746BD
:1026800000B301FB00F421B3B4FBF1F3834204D0A7
:1026900040F29B112848FEF745FA14F1510F04D976
:1026A0004FF4CF712448FEF73DFA04F1500002F0D8
:1026B00037FA044600283AD0002304F1500084F889
:1026C00046300FE040F293111B48FEF72BFA8EBB09
:1026D000344604F1500002F023FA40B300230446CC
:1026E00080F846302060C4E90F5602F019F9D4E9A9
:1026F0000F3202FB03F321689A1A0B446160A36056
:102700001144FF230022E160A26304F1100084F869
:10271000443084F84530FFF7FDFE04F12400FFF754
:10272000F9FE02F01DF984F84C702046F8BD002433
:102730002046F8BD2C46B8E7387100002DE9F0437B
:1027400085B0044688461F460192002800F0948117
:10275000B8F1000F00F00681022F00F0F98001F0BF
:1027600017FD18B9019B002B40F08C8102F0D8F8BE
:10277000A26BE36B4FF000099A4204F1240679D36F
:10278000022F00F0F980019D002D00F02781B9F1A2
:10279000000F00F0D98002F0E3F801F0B5FA02F082
:1027A000BFF894F84430FF2B04BF002384F8443072
:1027B00094F84530FF2B04BF002384F8453002F025
:1027C000CFF802A801A901F09BFC002840F00C8181
:1027D00002F0A6F8A26BE36B9A4260D002F0C0F858
:1027E00002F09EF894F8452055B2002D04DC11E06B
:1027F0006A1ED3B255B26BB1636A5BB1304601F069
:102800002FFC0028F4D001F0BDFC6A1ED3B255B2F3
:10281000002BF1D1FF2384F8453002F0A1F802F03B
:102820007FF894F8442055B2002D14DD04F110090E
:1028300003E06A1ED3B255B26BB123695BB148465F
:1028400001F00EFC0028F4D001F09CFC6A1ED3B20B
:1028500055B2002BF1D1FF2384F8443002F080F808
:1028600001F05AFA02F05CF8A26BE36B4FF0010939
:102870009A4285D2226CA56B002A40F00981266815
:10288000002E00F01B810135A563636A002B40F028
:10289000938002F065F8012005B0BDE8F08304F1F3
:1028A000100902F05DF84846019901F047FB02F07B
:1028B00037F894F845305DB2002D04DC11E06B1E52
:1028C000DAB25DB26AB1636A5BB1304601F0C8FB4F
:1028D0000028F4D001F056FC6B1EDAB25DB2002A7B
:1028E000F1D1FF2384F8453002F03AF802F018F8ED
:1028F00094F844305DB2002D04DC11E06B1EDAB2B6
:102900005DB26AB123695BB1484601F0A9FB0028BA
:10291000F4D001F037FC6B1EDAB25DB2002AF1D1BF
:10292000FF2384F8443002F01BF801F0F5F9002889
:1029300098D14FF0E0234FF08052C3F8042DBFF33D
:102940004F8FBFF36F8F8DE702A801F0CDFB22E719
:10295000E36B012B3FF403AF40F21B316548FEF7F8
:10296000E1F8FCE6236C002B3FF4F6AE40F21A319E
:102970006048FEF7D7F8EFE6226CA56B002A3FF41B
:102980007EAF4146E06804F0B9F8226CE36851423A
:102990009B1A2268E360934205D2A3680B44E3606C
:1029A000022F7FF470AF002D7FF46EAF0123A3637D
:1029B000636A002B3FF46DAF04F1240001F050FB7B
:1029C00000283FF466AF4FF0E0234FF08052C3F889
:1029D000042DBFF34F8FBFF36F8F5AE701F0C0FF95
:1029E000284605B0BDE8F08301F09AFF94F8453021
:1029F0005DB2002D14DD04F1240603E06B1EDAB293
:102A00005DB26AB1636A5BB1304601F029FB002810
:102A1000F4D001F0B7FB6B1EDAB25DB2002AF1D13F
:102A2000FF2384F8453001F09BFF01F079FF94F813
:102A300044305DB2002D14DD04F1100603E06B1E7E
:102A4000DAB25DB26AB123695BB1304601F008FBCE
:102A50000028F4D001F096FB6B1EDAB25DB2002ABA
:102A6000F1D1FF2384F8443001F07AFF01F054F9EA
:102A7000002005B0BDE8F08340F219311D48FEF793
:102A800051F865E640F21E311A48FEF74BF86DE644
:102A900041460FBB606804F031F86368216CA2689E
:102AA0000B4493426360FFF4EEAE0135A5632268E8
:102AB000636A6260002B3FF4ECAE7DE7A0680135ED
:102AC00001F0B8FBA563626AA660002A7FF474AFC8
:102AD00000287FF478AFDCE6E06804F00FF8226CA1
:102AE000E36851429B1A2268E3609342BFF458AFF7
:102AF00053E700BF387100002DE9F04704460F4648
:102B000090461D46002866D0002F5BD0022D50D085
:102B100001F0DAFFEFF3118A4FF0600383F31188BD
:102B2000BFF36F8FBFF34F8FA26BE36B9A4225D336
:102B3000022D04D000208AF31188BDE8F08794F8B4
:102B40004560226CA36B76B2D4F83890F2B1394666
:102B5000E06803F0D3FF236CE2682168D21A8A424E
:102B6000E260C3F1000304D2A2681344E360022DC3
:102B70000FD14B46012B38BF01230CE094F8456080
:102B8000226CA36B76B2D4F8389052BB2568002D26
:102B900057D009F10103A363731C37D07F2E3CD0BB
:102BA0000120064476B284F845608AF31188BDE8B6
:102BB000F087E36B012BABD040F2EF312A48FDF7F1
:102BC000B1FFA5E7236C002BA0D040F2EE312648E0
:102BD000FDF7A8FF9AE740F2ED312348FDF7A2FF89
:102BE00092E73946002D31D1606803F087FF6368B2
:102BF000226C1344A2686360934228BF226809F1E3
:102C0000010328BF6260A363731CC7D1636A53B911
:102C100001208AF31188BDE8F0874FF48F611248D4
:102C2000FDF780FFBCE704F1240001F019FA002849
:102C3000EED0B8F1000FEBD001231846C8F80030F1
:102C400079E7A06801F0F6FAA560A2E7E06803F072
:102C500055FF236CE2682168D21A8A42E260C3F110
:102C6000000384D280E700BF38710000F8B5044645
:102C70000D4600283FD0236C33BB236863B301F0BB
:102C800023FFEFF311874FF0600383F31188BFF345
:102C90006F8FBFF34F8FA36BE26B9A4210D994F8FA
:102CA00045200133FF2AA36356B21ED07F2E28D0C1
:102CB000013676B2012084F8456087F31188F8BDAB
:102CC000002087F31188F8BD40F29C411648FDF7BB
:102CD00029FF2368002BD2D1A368002BCFD040F26C
:102CE000A1411148FDF71EFFC9E7636A7BB90120C6
:102CF00087F31188F8BD4FF493610B48FDF712FF7D
:102D0000B9E74FF4A4610848FDF70CFFD0E704F1E0
:102D1000240001F0A5F90028E9D0002DE7D0012317
:102D200018462B60CDE700BF387100002DE9F04355
:102D300085B004460F460192002800F03581002F2F
:102D400000F0288101F024FA18B9019B002B40F013
:102D5000318101F0E5FDA56B002D40F03181019B33
:102D6000002B00F0CC8002A801F0BEF9A84604F1C7
:102D7000240601F0F5FD00F0C7FF01F0D1FD94F845
:102D80004430FF2B08BF84F8448094F84530FF2B73
:102D900008BF84F8458001F0E3FD01A902A801F015
:102DA000AFF900285AD101F0BBFDA36B002B40F016
:102DB000AC8001F0D5FD3046019901F0BFF801F07B
:102DC000AFFD94F845305DB2002D04DC11E06B1EC0
:102DD000DAB25DB26AB1636A5BB1304601F040F9C4
:102DE0000028F4D001F0CEF96B1EDAB25DB2002AF1
:102DF000F1D1FF2384F8453001F0B2FD01F090FDE0
:102E000094F844305DB2002D14DD04F1100903E0A4
:102E10006B1EDAB25DB26AB123695BB1484601F05C
:102E20001FF90028F4D001F0ADF96B1EDAB25DB2E3
:102E3000002AF1D1FF2384F8443001F091FD00F025
:102E40006BFF002852D14FF0E0234FF08052C3F8BF
:102E5000042DBFF34F8FBFF36F8F47E001F060FD8C
:102E600094F845305DB2002D04DC11E06B1EDAB23F
:102E70005DB26AB1636A5BB1304601F0F1F80028D7
:102E8000F4D001F07FF96B1EDAB25DB2002AF1D105
:102E9000FF2384F8453001F063FD01F041FD94F813
:102EA00044305DB2002D14DD04F1100903E06B1E07
:102EB000DAB25DB26AB123695BB1484601F0D0F87D
:102EC0000028F4D001F05EF96B1EDAB25DB2002A80
:102ED000F1D1FF2384F8443001F042FD00F01CFFE3
:102EE00001F01EFDA36B53B101F03AFD01F018FD96
:102EF000A56B002D64D1019B002B7FF43AAF01F04C
:102F00002FFD002005B0BDE8F08301F029FD01F0A0
:102F100007FD94F845305DB2002D04DC11E06B1E16
:102F2000DAB25DB26AB1636A5BB1304601F098F81B
:102F30000028F4D001F026F96B1EDAB25DB2002A47
:102F4000F1D1FF2384F8453001F00AFD01F0E8FCDF
:102F500094F844305DB2002D14DD04F1100903E053
:102F60006B1EDAB25DB26AB123695BB1484601F00B
:102F700077F80028F4D001F005F96B1EDAB25DB2E3
:102F8000002AF1D1FF2384F8443001F0E9FC00F07D
:102F9000C3FEABE7236C002B3FF4D4AE4FF4A86123
:102FA0001C48FDF7BFFDCDE640F23C511948FDF746
:102FB000B9FDC4E640F245511648FDF7B3FDC8E639
:102FC000226C5AB1E168A36811449942E16028BFBC
:102FD0002168384628BFE16003F090FD013DA563FC
:102FE00023692BB901F0BCFC012005B0BDE8F083DA
:102FF00004F1100001F034F80028F3D04FF0E02382
:103000004FF08052C3F8042DBFF34F8FBFF36F8F83
:10301000E8E700BF387100002DE9F04184B00446B4
:103020000191002800F06681236C002B40F0448160
:1030300001F0AEF818B9019B002B40F05581002734
:1030400001F06EFCA36B3D4604F12406002B40F01A
:10305000D180019B002B00F05C81002D00F0DB8013
:1030600001F07EFC00F050FE01F05AFC94F8443070
:10307000FF2B04BF002384F8443094F84530FF2B25
:1030800004BF002384F8453001F06AFC02A801A9BE
:1030900001F036F800285ED101F042FCA36B002B52
:1030A00040F0C58001F05CFC2368002B00F0288113
:1030B0003046019900F042FF01F032FC94F84530AF
:1030C0005DB2002D04DC11E06B1EDAB25DB26AB1B4
:1030D000636A5BB1304600F0C3FF0028F4D001F012
:1030E00051F86B1EDAB25DB2002AF1D1FF2384F8E9
:1030F000453001F035FC01F013FC94F844305DB22A
:10310000002D14DD04F1100803E06B1EDAB25DB28D
:103110006AB123695BB1404600F0A2FF0028F4D0F9
:1031200001F030F86B1EDAB25DB2002AF1D1FF2354
:1031300084F8443001F014FC00F0EEFD002852D178
:103140004FF0E0234FF08052C3F8042DBFF34F8FB0
:10315000BFF36F8F47E001F0E3FB94F845305DB2B9
:10316000002D04DC11E06B1EDAB25DB26AB1636A55
:103170005BB1304600F074FF0028F4D001F002F893
:103180006B1EDAB25DB2002AF1D1FF2384F845301C
:1031900001F0E6FB01F0C4FB94F844305DB2002D71
:1031A00014DD04F1100803E06B1EDAB25DB26AB1FF
:1031B00023695BB1404600F053FF0028F4D000F0D3
:1031C000E1FF6B1EDAB25DB2002AF1D1FF2384F871
:1031D000443001F0C5FB00F09FFD01F0A1FBA36BA3
:1031E000EBB101F0BDFB01F09BFBA36B0125002BB4
:1031F0003FF42FAF2268013BA363002A00F0A980AF
:103200002369002B40F08D80012701F0A9FB38468F
:1032100004B0BDE8F08102A800F066FF20E701F0ED
:103220009FFB002F4ED1384604B0BDE8F08101F07D
:1032300097FB01F075FB94F845305DB2002D04DC7E
:1032400011E06B1EDAB25DB26AB1636A5BB13046FF
:1032500000F006FF0028F4D000F094FF6B1EDAB2F5
:103260005DB2002AF1D1FF2384F8453001F078FBEC
:1032700001F056FB94F844305DB2002D14DD04F1EA
:10328000100803E06B1EDAB25DB26AB123695BB16C
:10329000404600F0E5FE0028F4D000F073FF6B1EFE
:1032A000DAB25DB2002AF1D1FF2384F8443001F094
:1032B00057FB00F031FD96E740F2D2512748FDF769
:1032C00031FCB5E601F02CFB616A19B1236B19687A
:1032D000C1F138010027A06800F0ECFF01F040FBCD
:1032E000384604B0BDE8F08140F2D7511B48FDF7E5
:1032F00019FCA4E640F2CE511848FDF713FC93E602
:1033000001F00EFBA06800F053FF074601F028FB18
:10331000CEE6C7B9002701F023FB384604B0BDE86C
:10332000F08104F1100000F09BFE00283FF46CAF28
:103330004FF0E0234FF08052C3F8042DBFF34F8FBE
:10334000BFF36F8F60E740F21D610448FDF7EAFBB1
:10335000E0E700F0FDFFA06052E700BF3871000019
:10336000164B1A689AB19A6882B11A69B2B19A6911
:10337000B2B11A6AB2B19A6AB2B11A6BB2B19A6BAF
:10338000B2B11A6CB2B19A6CB2B17047012203EBC0
:10339000C20C43F83210CCF8040070470222F6E762
:1033A0000322F4E70422F2E70522F0E70622EEE723
:1033B0000722ECE70822EAE70922E8E710170020D5
:1033C00070B505460E46144601F0AAFA95F8443049
:1033D000FF2B04BF002385F8443095F84530FF2BC0
:1033E00004BF002385F8453001F0BAFAAB6B002B1F
:1033F00043D001F095FA95F845305CB2002C14DD0D
:1034000005F1240603E0631EDAB25CB26AB16B6AAE
:103410005BB1304600F024FE0028F4D000F0B2FE8C
:10342000631EDAB25CB2002AF1D1FF2385F8453081
:1034300001F096FA01F074FA95F844305CB2002C71
:1034400014DD05F1100603E0631EDAB25CB26AB166
:103450002B695BB1304600F003FE0028F4D000F089
:1034600091FE631EDAB25CB2002AF1D1FF2385F827
:103470004430BDE8704001F073BA2246314605F190
:10348000240000F0A1FDB4E72DE9F843054601F062
:1034900047FA344A344E1368013313603368002B03
:1034A00032D0324C23683BB3E86A314F314A32495B
:1034B0001368013313602B640B68834238BF0860C4
:1034C00000EB800007EB8000291DFFF733F801F0C7
:1034D00047FA236873B13268EB6AD26A9A4209D21A
:1034E0004FF0E0234FF08052C3F8042DBFF34F8F0D
:1034F000BFF36F8FBDE8F8833368E86ADB6A1C4F5F
:10350000834298BF3560D1E735601368012B03D043
:10351000E86A174F154CC9E7154F3C4607F58C680C
:1035200020461434FEF7F6FFA045F9D1DFF84C90A1
:10353000DFF84C804846FEF7EDFF4046FEF7EAFF15
:103540001048FEF7E7FF1048FEF7E4FF0F48FEF7CC
:10355000E1FF0F4B054CC3F800900E4BE86AC3F82F
:103560000080A3E7082200209C1D00206422002088
:10357000A81D002014220020182200201C22002058
:1035800030220020502200207C22002068220020CF
:10359000A01D0020A41D0020F8B50022264B274DB9
:1035A0001A602B681B6B1A68B2F1A53F03D15A68E9
:1035B000B2F1A53F36D0286829683431FEF786FF7E
:1035C0001F4E204C336803EB83029200A2589900EF
:1035D0009AB91D4F4BB940F604413846FDF7A2FA9F
:1035E00054F8143CCBB94FF0FF33013B03EB83029B
:1035F00054F822209900002AECD0194404EB8100F1
:103600000446426808345268A242426004BF5268CD
:103610004260D2682A603360F8BD4FF0FF336FF02C
:103620000301EAE79A68B2F1A53FC4D1DB68B3F1C0
:10363000A53FC0D1C4E700BF942200209C1D0020FC
:1036400018220020A81D0020947100002DE9F047E9
:103650000D460A9C4FEA82094A460646A521206B80
:103660001F46DDF8248003F057FA236BA9F1040903
:10367000994429F00709002D66D02B7884F834305E
:103680002B7853B36B7884F835306B782BB3AB78E9
:1036900084F83630AB7803B3EB7884F83730EB78C6
:1036A000DBB12B7984F838302B79B3B16B7984F89E
:1036B00039306B798BB1AB7984F83A30AB7963B13F
:1036C000EB7984F83B30EB793BB12B7A84F83C30D2
:1036D0002B7A13B16B7A84F83D30002384F83D30A7
:1036E000089D4FF0000A372D28BF3725201DC4E95B
:1036F000125AE562FEF71AFFC5F1380504F1180009
:10370000FEF714FF08225146A5612461646204F1AA
:10371000500003F001FA0422514604F1580003F06E
:10372000FBF95146012204F15C0003F0F5F93A4639
:103730003146484601F0E2F82060B8F1000F01D0B0
:10374000C8F80040BDE8F08784F83450C8E700BFEF
:1037500080B5214C214E224DDFF88880224F23680E
:10376000FBB101F0DDF8F368D3F80C9009F1040027
:10377000FEF706FF2B68013B2B602368013B2360AB
:1037800001F0EEF899F85D30D3B1012B20D0022B77
:10379000E5D040F697713846FDF7C4F92368002B51
:1037A000DFD1D8F80030012BD9D94FF0E0234FF00A
:1037B0008052C3F8042DBFF34F8FBFF36F8FCEE756
:1037C000D9F8300001F00CFA484601F009FAC6E7D2
:1037D000484601F005FAC2E70C2200207C220020B6
:1037E00008220020A81D0020947100002DE9F04F50
:1037F00083B0474B1F6801371F60002F3ED0454BF9
:1038000001931B689F4253D3434E33681D68002DBC
:103810006FD00025DFF80491DFF804A1DFF8048100
:1038200021E05846FEF7ACFEA36A04F118000BB184
:10383000FEF7A6FEE36AD8F8002003EB830093426C
:10384000594609EB800088BFC8F80030FEF772FEC9
:10385000DAF800203368E16AD26A1B68914228BF17
:103860000125002B49D03368DB68DC68636804F10C
:10387000040B9F42D5D2019A13601EE0264E336896
:103880001B68002B3ED1284B31681A683260274AEA
:10389000196013680133136033681B680BBB4FF06A
:1038A000FF331C4A136013461B6801929F42ABD240
:1038B0000025DFF86890DFF868A0DAF800301C49CE
:1038C000DB6A03EB83039B0059F803200B68022A91
:1038D00028BF0125002B0CBF2846012003B0BDE8FE
:1038E000F08F33680B4ADB6801921B681360134644
:1038F00087E7DFF82890DFF828A04FF0FF33019A20
:103900001360DAE740F6C9210A48FDF70BF9BAE778
:103910009022002044220020A01D0020A81D00208D
:103920009C1D002018220020A41D002048220020F9
:1039300094220020947100002DE9F04387B00646E0
:10394000DDE90F45894690461F4654B3002D2FD020
:1039500060230493049B602B17D1049BECB12C6370
:103960000E9C02950094022485F85D4005AC3B4610
:103970004246494630460194FFF768FE2846FFF765
:1039800083FD059807B0BDE8F08340F25E21124840
:10399000FDF7C8F8049B002CE1D1204607B0BDE834
:1039A000F08340F255210C48FDF7BCF8002DCFD133
:1039B00040F256210848FDF7B5F860230493049BB4
:1039C000602B04D040F25E210348FDF7ABF8284697
:1039D000049B07B0BDE8F083947100002DE9F0432B
:1039E00085B00746900015468846994601F098F83C
:1039F000D8B10446602001F093F80646D0B10463C4
:103A0000002486F85D400D9C4B4601940C9C2A4690
:103A10004146384602960094FFF718FE3046FFF7FD
:103A200033FD012005B0BDE8F0834FF0FF3005B055
:103A3000BDE8F083204601F0D3F84FF0FF30F1E706
:103A400070B50446304E00F06BFF002C3CD0251DB5
:103A50002846FEF795FDA36A1BB104F11800FEF796
:103A60008FFD29462948FEF765FD94F85C30284D06
:103A7000012B04BF002384F85C3000F071FF2B6839
:103A8000A3B93368A34200D070BD2B681BB3214B90
:103A90001B68002B32D14FF0E0234FF08052C3F867
:103AA000042DBFF34F8FBFF36F8F70BD00F038FF51
:103AB000194B1A6812684AB11A68184BD268126812
:103AC0001A6000F04DFFDCE73468C0E74FF0FF32CA
:103AD000124B1A60F5E70D49114A096812689142C4
:103AE00006D00C4B1B682BB101220E4B1A6070BD27
:103AF000336070BDBDE87040FFF74EBD4FF4E0612C
:103B00000948FDF70FF8C6E79C1D00206822002039
:103B10006422002010220020A01D0020442200204A
:103B2000082200209422002094710000F8B5044679
:103B300000283FD000F0C8FFEFF311864FF060037C
:103B400083F31188BFF36F8FBFF34F8F002C37D0F3
:103B5000234B62699A4204D0002586F311882846D7
:103B6000F8BDA76A1F488742F6D0002FF4D11E4B3C
:103B70001D685DBB1D4BE26A1B68DB6A9A4203D37A
:103B800001231D461A4A1360271D3846FEF7F8FC2C
:103B9000184AE36A116818488B4288BF136003EB28
:103BA0008303394600EB8300FEF7C4FC86F31188DB
:103BB0002846F8BD40F28B711048FCF7B3FFB9E717
:103BC00040F22A710D48FCF7ADFFC1E704F118017E
:103BD000FEF7B0FC3D4686F311882846F8BD00BFCD
:103BE0006822002050220020102200209C1D00206E
:103BF0009422002018220020A81D002094710000AB
:103C0000F0B58BB0002307AA06A905A8CDE90533B6
:103C1000FEF764FCDDE90656059C002D4BD0002C18
:103C200050D060230893089B602B25D1089BFDB1E1
:103C30004FF0020C002709AB84F85DC025633246C3
:103C4000CDE9013429493B4629480097FFF7FEFC9E
:103C50002046FFF719FC099B53B100F017FD01281E
:103C600013D0013004D140F643012248FCF75AFF3B
:103C7000214B1B680BB0F0BD40F25E211D48FCF7E4
:103C800051FF089B002DD3D1F2E74FF0600383F37F
:103C90001188BFF36F8FBFF34F8F4FF0FF34174979
:103CA000174A184B0C6010601F6000F09BFE124B0F
:103CB0001B680BB0F0BD40F255210E48FCF732FFF7
:103CC000002CAED140F256210A48FCF72BFF6023AE
:103CD0000893089B602B04D040F25E210548FCF756
:103CE00021FF089B044B1B680BB0F0BDF071000076
:103CF0005137000094710000101000204422002071
:103D00006422002090220020024A136801331360CD
:103D1000704700BF102200202DE9F84F464D2B6858
:103D2000002B7BD000F0FCFD2B68013B2B602B6847
:103D3000002B64D1414B1B68002B60D0404E336890
:103D4000002B76D03F4FDFF80091DFF80081DFF8DD
:103D500000A1F368DC6804F1040B04F11800FEF71D
:103D60000FFC5846FEF70CFCE36A3A6803EB83004D
:103D70009342594609EB800088BF3B60FEF7DAFBAF
:103D8000D8F80030E26ADB6A9A423ED30123CAF8CF
:103D900000303368002BDCD12E4B1A681268002AE1
:103DA00042D01A682C4BD26812681A602B4E3468C5
:103DB00094B1012706E0FFF719FD08B1CAF80070B9
:103DC000013C08D02B68002BF5D03368013C03F18F
:103DD00001033360F6D13460DAF800307BB14FF084
:103DE000E0234FF08052C3F8042DBFF34F8FBFF391
:103DF0006F8F012400F0B4FD2046BDE8F88F002449
:103E000000F0AEFD2046BDE8F88F3368002BA0D14E
:103E1000104B1A681268002AC3D105E040F6B601BB
:103E20000F48FCF77FFE7DE74FF0FF320A4B1A6028
:103E3000BCE7DFF81CA0B9E7102200200822002010
:103E40005022002018220020A81D00209C1D0020C8
:103E500094220020A01D0020442200204C2200209B
:103E60009471000070B5F8B11B4D04462B686BBB14
:103E70002B6801332B60194B194D1E6828680430DC
:103E8000FEF77EFB2B68A4195C6018D2154B1868EE
:103E900029680431FEF75CFB134B1A68944238BF63
:103EA0001C60FFF739FF48B94FF0E0234FF0805214
:103EB000C3F8042DBFF34F8FBFF36F8F70BD0B4B53
:103EC000186829680431FEF743FBEAE740F24C51D9
:103ED0000748FCF727FECBE71022002090220020A5
:103EE0009C1D0020A01D002044220020A41D0020B5
:103EF00094710000014B1868704700BF90220020A9
:103F0000054B1B680BB9FFF771BC044A002013680E
:103F100001331360704700BF102200204C220020A4
:103F2000044B1B681BB10122034B1A607047FFF75B
:103F300033BB00BF102200209422002070B505463C
:103F40000C4660B3194E284631681831FEF700FB65
:103F5000174B1D6830680430FEF712FB631C17D046
:103F6000336864195C6007D3124B18683168BDE888
:103F700070400431FEF7ECBA0F4B18683168043119
:103F8000FEF7E6FA0D4B1A68944238BF1C6070BD0C
:103F900031680B480431BDE87040FEF7CBBA40F6FB
:103FA0001E410848FCF7BEFDCCE700BF9C1D002069
:103FB00090220020A41D0020A01D002044220020EB
:103FC0006822002094710000F8B506460C4617469A
:103FD000002830D01B4D304629681831FEF7AAFA68
:103FE000194B5FB11B6828680430FEF7C9FA2968CD
:103FF00016480431BDE8F840FEF79CBA1E682868F0
:104000000430FEF7BDFA2B68A4195C6007D3104B8F
:1040100018682968BDE8F8400431FEF799BA0D4BDD
:10402000186829680431FEF793FA0B4B1A6894421A
:1040300038BF1C60F8BD40F64D410848FCF772FDE2
:10404000C8E700BF9C1D00209022002068220020AD
:10405000A41D0020A01D0020442200209471000017
:1040600038B5C368DC685CB304F118052846FEF770
:1040700087FA164B1B68F3B9251D2846FEF780FA10
:10408000134AE36A116813488B4288BF136003EB3D
:104090008303294600EB8300FEF74CFA0E4BE26ADD
:1040A0001B68DB6A9A4204D901230C4A1846136044
:1040B00038BD002038BD29460948FEF73BFAEDE738
:1040C00040F67D410748FCF72DFDCDE7102200208A
:1040D00018220020A81D00209C1D002094220020F2
:1040E0005022002094710000034A044B12681B68A0
:1040F000C0E90023704700BF482200209022002022
:10410000F8B504460D4650B385B300F009FC2B68A2
:10411000194A581C11681DD0D4E900C0174E3768E1
:10412000BC4508D0884206D8002301262B6000F049
:1041300017FC3046F8BD0F1ABB42F5D95B1A31683F
:104140000026126803442B60C4E9001200F008FC4A
:104150003046F8BD002600F003FC3046F8BD40F6BE
:10416000F8410748FCF7DEFC002DCED140F6F941BE
:104170000348FCF7D7FCC8E7902200204822002023
:10418000947100000122014B1A60704794220020B4
:10419000054B1B6833B1054B1B68002B0CBF02207D
:1041A0000020704701207047642200201022002068
:1041B000F8B50446C8B11C4DC36A2A68D26A934256
:1041C00014D28269002A04DB2A68D26AC2F138025A
:1041D0008261164E626903EB830306EB83039A4206
:1041E0000CD001202B68DB6AE362F8BD2B68806C81
:1041F000DB6A98422CBF00200120F8BD271D3846FD
:10420000FEF7BEF92A680A4BD06A1A68E06290424B
:1042100088BF186000EB800006EB80003946FEF78F
:1042200089F90120F8BD00BF9C1D0020A81D0020B9
:1042300018220020E0B138B51A4B04461B688342AF
:1042400004D041F24A011848FCF76CFCE36C43B11E
:10425000E16AA26C013B9142E36400D053B10020BB
:1042600038BD41F24B011048FCF75CFCE36CEFE712
:1042700000207047251D2846FEF782F9A36C0B4AE3
:10428000C3F13801A161116809488B42E36288BF1C
:10429000136003EB830300EB83002946FEF74AF922
:1042A000012038BD9C1D00209471000018220020C0
:1042B000A81D0020A8B170B5C36C04460D4653B1CB
:1042C000A16CE36A8D4238BF0D46AB4202D0E26C6E
:1042D000012A07D070BD41F29A011948FCF722FC6F
:1042E000EEE77047174A1268A24221D0A269E56240
:1042F000002AA4BFC5F13805A561134D626903EB1F
:10430000830305EB83039A42E4D1261D3046FEF772
:1043100037F90E4BE06A1A683146904288BF186040
:1043200000EB800005EB8000BDE87040FEF702B9AD
:1043300041F2B5010248FCF7F5FBE36AD6E700BF9E
:10434000947100009C1D0020A81D00201822002050
:10435000044B1A681AB11968CA6C0132CA64186829
:10436000704700BF9C1D00202DE9F04385B0214E11
:10437000DFF88490DFF884800DE0DB68DC681F687C
:10438000251D2846FEF7FCF8236A2046984794F836
:1043900028305B070AD433681A68002AEDD1184A1E
:1043A00011681360316005B0BDE8F083A3693B4438
:1043B0009F4217D3D9F8003073B10025CDE90174BD
:1043C0000095FFF7E5FE2B462A466946D9F800001E
:1043D000FEF7B4F90028DED140F2B6314046FCF7D2
:1043E000A1FBD8E72946306863602461FEF7B0F886
:1043F000D1E700BF98220020BC230020F871000004
:104400009C2200202DE9F04F8BB04FF0E0289A4E0F
:104410009A4D9B4C3368D3F80090B9F1000F00F02F
:10442000A780DB68D3F80090FFF76EFCFFF762FD12
:104430002A6882469042C0F0AC808145286040F2F4
:10444000B28000222068A9EB0A01FEF7B9FFFFF74E
:1044500063FC38B94FF08053C8F8043DBFF34F8F69
:10446000BFF36F8F0022206802A9FEF75FFC0028CF
:10447000D0D0029B002B72DB049F7B6913B1381DE7
:10448000FEF77EF8FFF736FD2A6881469042C0F0BD
:104490008780029AC5F80090092AE3D8DFE802F085
:1044A0000505054F3B5605054F3B97F82810039A25
:1044B00041F0010187F82810B9693F6150182CBFFD
:1044C000012300234845786000F28880A9EB0203AD
:1044D000994200F298803B6A3846984797F828300E
:1044E0005B07BFD5236883B10022BB690692039A9C
:1044F000089713440793FFF74BFE002320681A46E2
:1045000006A9FEF71BF90028ACD140F243315D4803
:10451000FCF708FBA6E797F82810039A41F0010181
:1045200087F82810BA61002A5ED04A444A457A606A
:104530003F6168D93068391DFEF70AF892E797F8AD
:10454000283023F0010387F828308BE797F82830CC
:104550009A075ED523F0010387F8283082E7039B92
:10456000DDE904019847029B002BFFF67BAF83E750
:10457000FFF7CAFBFFF7BEFC2A688246824208D8D2
:10458000414BC5F800A01A681268B2FA82F25209CB
:1045900058E7FFF7E9FEC5F800A0FFF7BDFB61E7AC
:1045A000FFF7E2FE75E7FFF7B7FB3268D268D2F893
:1045B0000CB00BF1040108460191FDF7E1FF9BF8F7
:1045C0002800019910F0040F27D120F001008BF88A
:1045D00028005846DBF82030984743E74A45A9D9D8
:1045E000002B3FF478AFA5E74FF457712548FCF74F
:1045F00099FABA693F6102EB09014945796099D896
:10460000002A3FF42FAF204B391D1868FDF7A0FF9B
:1046100028E7384600F0E4FA24E7DBF81820CBF866
:1046200010B009EB02005045CBF8040003D9306804
:10463000FDF78EFFCDE7AAEB09039A4217D823684E
:104640007BB10023CDF81C900693CDF820B0FFF786
:104650009FFD002320681A4606A9FEF76FF8002880
:10466000B7D140F221210748FCF75CFAB1E7064BCD
:104670001868FDF76DFFACE7982200206823002042
:10468000BC230020F87100009C220020F0B589B006
:10469000224C00F045F925682DB300F061F923683C
:1046A000CBB10024282507AA06A905A8CDE9054411
:1046B000FDF722FFDDE905012346CDE90110079A48
:1046C000174918480095FFF737F9174B186010B1D4
:1046D000012009B0F0BD4FF48D711448FCF722FAA7
:1046E000002009B0F0BD124F124E3846FDF712FF00
:1046F0003046FDF70FFF104A009517600F4A102152
:1047000016600A200E4B0F4AFDF74CFF2060002870
:10471000C3D00D49FEF724FEBFE700BFBC23002035
:104720006072000005440000C0230020F871000002
:104730004023002054230020982200209C220020A7
:104740006C230020A0220020587200002DE9F04FB9
:1047500085B007462C20884616461D4600F0E0F935
:104760000446E8B1002380F82830B8F1000F1BD0D0
:10477000DFF8909000F0D4F8D9F800300BB300F0D7
:10478000EFF80E9BC4E9068527602362201DFDF724
:10479000CDFE2EB194F8283043F0040384F828307D
:1047A000204605B0BDE8F08FDFF858904FF4B671A1
:1047B0001548FCF7B7F900F0B3F8D9F80030002B32
:1047C000DDD1DFF848B0DFF848A058460393FDF785
:1047D000A1FE5046FDF79EFE039B102100930D4B5A
:1047E0000A20C3F800B00C4B0C4AC3F800A00C4BD5
:1047F000FDF7D8FEC9F800000028C0D00949FEF72F
:10480000AFFDBCE7BC230020F8710000402300206E
:1048100054230020982200209C220020A022002067
:104820006C230020587200002DE9F04184B004464A
:104830000D4616461F4600B3DFF85C80D8F800002E
:1048400080B1052DCDE9005602940EDCFFF7A0FCE7
:1048500002284FF0000316D069461A46D8F8000027
:10486000FDF76CFF04B0BDE8F08100233A466946CD
:10487000FEF742F904B0BDE8F08140F28F1107481D
:10488000FCF750F9D8E769460A9AD8F80000FDF716
:1048900055FF04B0BDE8F081BC230020F871000092
:1048A00006480068006880F3088862B661B6BFF306
:1048B0004F8FBFF36F8F00DF00BF000008ED00E0F7
:1048C00000B583B000220B4B01921B68013303D06B
:1048D000D9210948FCF726F94FF0600383F31188CA
:1048E000BFF36F8FBFF34F8F019B002BFCD003B042
:1048F0005DF804FB141000206872000010B44FF043
:104900008074064B21F0010140E9021440F80C3C90
:1049100040F8202C10BC4038704700BFC148000050
:104920004FF0600383F31188BFF36F8FBFF34F8F96
:10493000094A13680133012B136000D070474FF010
:10494000E023D3F8043DDBB2002BF7D040F287110F
:104950000248FCF7E7B800BF14100020687200009E
:1049600010B5084C23682BB1013B23600BB983F3CE
:10497000118810BD4FF4C7710348FCF7D3F82368C2
:10498000F2E700BF141000206872000008B54FF075
:10499000600383F31188BFF36F8FBFF34F8FFFF76F
:1049A000AFFA28B14FF0E0234FF08052C3F8042D46
:1049B000002383F3118808BD10B44FF0E0220021DA
:1049C0000720064B116191611B68054CA4FB031382
:1049D0009B09013B536110BC10617047001000201F
:1049E000D34D621030B585B0FF250720314B3249D9
:1049F0001A78324CD2B202921D701B782060DBB262
:104A00008DF807309DF807309DF8072003F060030C
:104A1000120648BF06220B7044D59DF80730114698
:104A20005B00DBB28DF807309DF80730013A1B06BA
:104A3000F3D40429216035D104234FF0E02200256E
:104A40001B02029903F4E06323601A4BC9B2197088
:104A5000D2F8203D1A4C43F47F03C2F8203DD2F82F
:104A6000203D43F07F43C2F8203DFFF7A5FF2560BE
:104A7000FFF716FFFFF754FA23680395013303D0BD
:104A8000D9211048FCF74EF84FF0600383F31188EA
:104A9000BFF36F8FBFF34F8F039B002BFCD0002021
:104AA00005B030BD40F23F110648FCF73BF82368E3
:104AB000C3E700BF00E400E0EB430020C423002074
:104AC000141000206872000008B5EFF305830F2B67
:104AD00005D90F490F4A5B5C12789A4211D84FF002
:104AE000E0230D4AD3F80C3D126803F4E0639342CF
:104AF00000D808BD40F2CB21BDE808400748FCF7CC
:104B000011B840F2BB210548FCF70CF8E7E700BFFD
:104B1000F0E300E0EB430020C423002068720000B3
:104B2000F8B50446FFF7F0F828490A6872B9284B2F
:104B3000284823F00703C0E9003227480125026016
:104B400041F6F872186042605A600D60631E0A33C5
:104B500036D8083424F007000830A04230D91F4F5F
:104B60003D68A8422CD81B4C236803E01A6822B188
:104B70001C46134659688842F8D8174A93421FD0FA
:104B80001E460A1A56F808CB102AC4F800C011D9DC
:104B900003EB000CCCF804205860DCF804400D4B0B
:104BA00019461B685A68A242FAD3CCF80030C1F803
:104BB00000C00146691A3960FFF7AEF83046F8BD0B
:104BC0000026FFF7A9F83046F8BD00BFD04300200B
:104BD000D0230020D4430020C84300201810002018
:104BE000C0B138B50446FFF78FF854F8041C0A4BDF
:104BF000A4F1080518461B685A688A42FAD3074A86
:104C000044F8083C136805600B441360BDE8384065
:104C1000FFF782B8704700BFD4430020181000206F
:104C2000037843F001030370704700BF038863B942
:104C300043886BB983886BB9C3886BB903896BB937
:104C400043896BB9808968B970470020C0B270474A
:104C50000120FBE70220F9E70320F7E70420F5E74E
:104C60000520F3E70620F1E70388ABB94388821CEF
:104C70008BB98388021D73B9C388821D5BB9038910
:104C800000F108023BB9438900F10A021BB983898C
:104C90000C300BB970471046802B19D01BD9B3F5D7
:104CA000006F64D008D9B3F5805F02D0B3F5005F20
:104CB00064D1402303807047B3F5007F08D0B3F57B
:104CC000806F02D1202303807047B3F5807F56D1D7
:104CD000012303807047202B46D8012BDAD0023BFA
:104CE0001E2BD7D801A252F823F000BFD14C0000F0
:104CF000954C00006F4D0000954C0000954C000055
:104D0000954C0000774D0000954C0000954C00003C
:104D1000954C0000954C0000954C0000954C00000F
:104D2000954C0000B34C0000954C0000954C0000E1
:104D3000954C0000954C0000954C0000954C0000EF
:104D4000954C0000954C0000954C0000954C0000DF
:104D5000954C0000954C0000954C0000954C0000CF
:104D6000954C0000D14C0000402BABD070474FF465
:104D7000806303807047102303807047704770473B
:104D80000388ABB94388821C8BB98388021D73B931
:104D9000C388821D5BB9038900F108023BB94389CE
:104DA00000F10A021BB983890C300BB97047104619
:104DB000802B19D01BD9B3F5006F06D008D9B3F5F5
:104DC000805F02D0B3F5005F64D108230380704791
:104DD000B3F5007F08D0B3F5806F02D110230380B4
:104DE0007047B3F5807F56D1402303807047202B56
:104DF00046D8013B1F2BD9D801A252F823F000BF9F
:104E00008F4E0000874E0000AD4D0000CB4D0000DE
:104E1000AD4D0000AD4D0000AD4D0000AD4D0000AA
:104E2000AD4D0000AD4D0000AD4D0000AD4D00009A
:104E3000AD4D0000AD4D0000AD4D0000CB4D00006C
:104E4000AD4D0000AD4D0000AD4D0000AD4D00007A
:104E5000AD4D0000AD4D0000AD4D0000AD4D00006A
:104E6000AD4D0000AD4D0000AD4D0000AD4D00005A
:104E7000AD4D0000AD4D0000AD4D0000E94D00000E
:104E8000402BABD070474FF48063038070472023E2
:104E9000038070477047704710B4038813BB438882
:104EA000821C002B40F0A4808388021D002B40F060
:104EB000DF80C388821D002B40F0DE80038900F173
:104EC0000802002B40F0DC80438900F10A02002B2D
:104ED00040F0DA80838900F10C02002B40F0D8808A
:104EE00010BC7047402BFBD0002102460C46402BE3
:104EF00054D8013B1FFA83FCBCF11F0FF0D81F2BC5
:104F0000EED80FF2080C5CF823F000BF115000003F
:104F1000954F0000E14E00008D4F0000E14E000073
:104F2000E14E0000E14E000059500000E14E00004B
:104F3000E14E0000E14E0000E14E0000E14E0000B5
:104F4000E14E0000E14E000041500000E14E000043
:104F5000E14E0000E14E0000E14E0000E14E000095
:104F6000E14E0000E14E0000E14E0000E14E000085
:104F7000E14E0000E14E0000E14E0000E14E000075
:104F8000E14E0000E14E0000295000004FF40063A4
:104F90001380A5E74FF400731380A1E7B3F5806F8A
:104FA0007AD008D9B3F5805F1BD0B3F5005F0CD180
:104FB0001023138094E7B3F5807F16D0B3F5007FFC
:104FC0000AD14FF4807313808AE7B3F5006F87D15D
:104FD0004FF48053138083E7802B81D120231380EB
:104FE0007EE74FF4005313807AE78023138077E73E
:104FF0004FF0010C6146402B5FFA8CF47FF477AFE1
:10500000002401F100410139148020F8113067E7D4
:10501000002C3FF465AF0024012301F10041013968
:10502000148020F811305BE7002C3FF459AF0024C6
:10503000022301F100410139148020F811304FE7BB
:10504000002C3FF44DAF0024042301F1004101394D
:10505000148020F8113043E7002C3FF441AF0024C6
:10506000082301F100410139148020F8113037E79D
:105070004FF0020C6146BEE74FF0030C6146BAE701
:105080004FF0040C6146B6E74FF0050C6146B2E7FD
:105090004FF0060C6146AEE7002CB1D120E700BF0F
:1050A000038803BB4388821C002B7CD18388021DAC
:1050B000002B40F0AF80C388821D002B40F0AC80F5
:1050C000038900F10802002B40F0A880438900F119
:1050D0000A02002B40F0A480838900F10C02002B0F
:1050E00040F0A080704702460021402BC9B249D051
:1050F000402B0DD9B3F5806F42D032D9B3F5805F24
:105100004DD0B3F5005F26D14FF480531380704724
:10511000013B1FFA83FCBCF11F0FE3D800B51F2B26
:1051200014D8DFE803F0426A135D1313135013130E
:105130001313131313101313131313131313131342
:105140001313131313154FF4005313805DF804FB6E
:1051500080231380FAE7B3F5006F69D1042313802D
:105160007047B3F5807F16D0B3F5007F02D10223DC
:1051700013807047802B5AD14FF48073138070478F
:105180000629AFD04FF0000C0131C9B2A2F800C01F
:1051900020F8113070474FF40073138070474FF4BC
:1051A00000631380704701219FE70629CED04FF09E
:1051B000010C4FF0000E01EB0C03DBB2A2F800E093
:1051C00020F813C0C2E70629C0D04FF0000E4FF000
:1051D000080C4B1CDBB2A2F800E020F813C0B5E7C6
:1051E0000629B3D04FF0000E4FF0100C4B1CDBB271
:1051F000A2F800E020F813C0A8E70629A6D04FF0D7
:10520000000E4FF0200C4B1CDBB2A2F800E020F89F
:1052100013C09BE7022168E7032166E7042164E7E6
:10522000052162E7402B3FF45DAF062160E7704740
:10523000704700BF38B5124B04465D68D8B11049BD
:105240006368086825F4830220F001000860E068C4
:1052500022F01F020343207A13430343607A228A19
:105260000343207813434B6000B938BD0B6843F00B
:1052700001030B6038BD46210248FBF753FCDEE713
:1052800000A00840D8720000054B054A5B68B0F5E5
:10529000803F23F4803308BF43F48033536070476A
:1052A00000A0084021B1054B9A68104398607047F0
:1052B000024A936823EA00009060704700A008400B
:1052C00070B507280C4618DC27290546164607DC6A
:1052D00007281ED8DFE800F05E2D363E464E5624E5
:1052E0004FF4CE716E48FBF71DFC072D11D8DFE897
:1052F00005F08A2029313941491740F29511684853
:10530000FBF710FC272C04DD4FF4CE716448FBF74B
:1053100009FCBDE8704040F206216148FBF702BC81
:105320001F2C4DDC00F294805E4B23449B001E60DA
:1053300070BD1F2C59DC00F286805B4B23449B0020
:105340001E6070BD1F2C57DC78D8584B23449B003F
:105350001E6070BD1F2C41DC57D8554B23449B0069
:105360001E6070BD1F2C24DC63D8524B23449B006D
:105370001E6070BD1F2C2ADC51D84F4B23449B006C
:105380001E6070BD1F2C0DDC44D84C4B23449B0089
:105390001E6070BD1F29E0DC46D8494B23449B00AA
:1053A0001E6070BD3F2C76DC464B23449B001E6084
:1053B00070BD3F2C6ADC444B23449B001E6070BDD3
:1053C0003F2C5EDC414B23449B001E6070BD3F2C94
:1053D00052DC3F4B23449B001E6070BD3F2C46DCDB
:1053E0003C4B23449B001E6070BD3F2C3ADC3A4B83
:1053F00023449B001E6070BD3F2C2EDC374B2344A2
:105400009B001E6070BD3F2CA7DD91213448FBF747
:1054100089FBA2E791213248FBF784FBB5E7912194
:105420002F48FBF77FFBA8E791212D48FBF77AFB7C
:10543000B3E791212A48FBF775FB96E791212848AD
:10544000FBF770FB81E791212548FBF76BFB74E7C5
:1054500091212348FBF766FB66E791212048FBF783
:1054600061FBCBE791211E48FBF75CFBBFE7912175
:105470001B48FBF757FBB3E791211948FBF752FB99
:10548000A7E791211648FBF74DFB9BE791211448B4
:10549000FBF748FB8FE791211148FBF743FB83E7BC
:1054A000D8720000C006C5102002C5104002C51009
:1054B0006002C5106006C5108006C510A006C510A4
:1054C0000002C510C005C5108005C510E005C51057
:1054D000A005C510C002C5108002C510A002C510ED
:1054E000E872000010B5072807DC07280AD8DFE8B3
:1054F00000F01A222A323A444E104FF41371294810
:10550000FBF710FBBDE810404FF423712548FBF773
:1055100009BB2548D0F8D840624002EA0103634045
:10552000C0F8D83010BD2048046C624002EA010384
:105530006340036410BD1C48446C624002EA0103EE
:105540006340436410BD1848846C624002EA010362
:105550006340836410BD1448C46C624002EA0103D6
:105560006340C36410BD1048D0F8CC40624002EAEA
:1055700001036340C0F8CC3010BD0B48D0F8D040D8
:10558000624002EA01036340C0F8D03010BD064813
:10559000D0F8D440624002EA01036340C0F8D4303E
:1055A00010BD00BFD872000000A00840072813DC1F
:1055B00010B407280ED8DFE800F0141D262F38435A
:1055C0004E042A48D0F8C040624002EA010363401A
:1055D000C0F8C03010BC704740F2A5212448FBF74A
:1055E000A1BA2248046D624002EA010363400365E8
:1055F00010BC70471D48446D624002EA01036340DD
:10560000436510BC70471948846D624002EA01038B
:105610006340836510BC70471448C46D624002EA61
:1056200001036340C36510BC70471048D0F8B44014
:10563000624002EA01036340C0F8B43010BC704716
:105640000A48D0F8B840624002EA01036340C0F85B
:10565000B83010BC70470548D0F8BC40624002EA40
:1056600001036340C0F8BC3010BC704700A0084084
:10567000D8720000034A536823F4E01303435360D5
:10568000704700BF00A0084038B5044608460D46E4
:10569000FFF7CCFA35F8103013F4886F15BF34F8E3
:1056A000103034F8102043F48863134324F810308A
:1056B00038BD00BF38B5044608460D46FFF7B6FAB8
:1056C00035F8103013F4886F15BF34F8103034F803
:1056D000102023F4886322EA030324F8103038BD35
:1056E000B1F800C00388428843EA0C030380B1F894
:1056F00002C0838842EA0C024280B1F804C0C2882A
:1057000043EA0C038380B1F806C0038942EA0C0225
:10571000C280B1F808C0428943EA0C030381B1F8A2
:105720000AC0838942EA0C0242818A891343838139
:10573000704700BF002000F0BFBA00BF0123042261
:1057400007210520FCF7CABB30B587B001211648F8
:10575000FBF7AEFE0422012310460021FCF7BEFB3E
:105760000122002304201146FCF7B8FBEC460F4C45
:105770000F4D0FCCACE80F0094E803008CE8030059
:1057800028466946FCF7ACFC6B6D43F4817343F02B
:1057900001036B65EB6C43F00403EB644FF4801280
:1057A000044B1A6007B030BD0032040038730000AB
:1057B00000E0004000E100E00F2900F29281F0B526
:1057C0004FF0620C0CFB01FCC64DC74C05EB0C0303
:1057D000DA7B997B5E7F41EA42011A7C41EA8201D1
:1057E0005A7C41EAC2019A7C41EA0211DA7C41EA20
:1057F00042111A7D41EA82115A7D41EAC2119A7D15
:1058000041EA0221DA7D41EA42211A7E41EA8221FF
:105810005A7E41EAC2219A7E41EA0231DA7E41EAA9
:1058200042311A7FC1F30D0142EA46029E7F42EAED
:105830008602DE7F42EAC60293F8206042EA061240
:1058400093F8216042EA461293F8226042EA8612F7
:1058500093F8236042EAC61293F8246042EA0622D3
:1058600093F8256042EA462293F8266042EA8622AF
:1058700093F8276042EAC62293F8286042EA06328B
:1058800093F8296042EA4632C2F30D0E93F82A607B
:1058900093F82B2046EA420693F82C2046EA82062B
:1058A00093F82D2093F82E7046EAC20615F80C20C6
:1058B00046EA07155E7893F838C042EA46029E78B9
:1058C00042EA8602DE7842EAC6021E7942EA0612FF
:1058D00093F82F6045EA46155E7942EA461293F83E
:1058E000306045EA86159E7942EA861293F8316067
:1058F00045EAC615DE7942EAC61293F8326045EAF7
:1059000006251E7A42EA062293F8336045EA4625C8
:1059100093F839604CEA460C5E7A42EA462293F8E4
:10592000346045EA862593F8356045EAC62593F844
:10593000366045EA063593F8376045EA463593F810
:105940003A60C5F30D054CEA860C93F83B604CEACF
:10595000C60C93F83C604CEA061C93F83D604CEA98
:10596000461C93F83E604CEA861C93F83F604CEA74
:10597000C61C9E7A42EA8622DE7A42EAC6221E7B54
:1059800042EA06325E7B42EA46320688C2F30D02E4
:1059900026403243028093F8476093F8462080F80F
:1059A00008C042EA460293F854C093F855604CEAA6
:1059B000460C93F8486042EA860293F856604CEA37
:1059C000860C93F8496042EAC60293F857604CEAA5
:1059D000C60C93F84A6042EA061293F858604CEA03
:1059E000061C4688264031434180818821404EEA8A
:1059F000010EC188A0F804E021400D4393F84B103C
:105A0000C58093F84C5042EA411293F8591042EA8B
:105A1000851293F85A504CEA411141EA851193F8E6
:105A20004D5042EAC51293F85B5041EAC51193F814
:105A30004E5042EA052293F85C5041EA052193F862
:105A40004F5042EA452293F8505042EA852293F89B
:105A5000515042EAC52293F8525042EA053293F877
:105A6000535042EA453293F85D5093F8416041EA61
:105A7000452193F84050C2F30D0245EA460593F8DC
:105A80005E6041EA862193F8426045EA860593F814
:105A90005F6041EAC62193F8436045EAC60593F882
:105AA000606041EA063193F8446045EA061593F8D0
:105AB000616093F8453041EA463145EA4315C1F348
:105AC0000D03417A05F03F0521F03F012943417262
:105AD000418921400A43818942810C401C438481D1
